:030000000201D426
:0C01D400787FE4F6D8FD75810802000376
:08012300C2B1D2857F017E000C
:10012B00EF1FAA0670011E4A6015E4FCFDC3ED9497
:0F013B00C7EC6480948450E80DBD00010C80EE89
:01014A002292
:0901EA00D281D280C281C28022C0
:0901F300C281D280D281C28022B7
:0200F800AD0752
:1000FA00E4FCC28074807E00A804088006CEA2E7D1
:10010A0013CE13D8F8FFEDFBEF5B6003D38001C376
:08011A009281D2800CBC08DACE
:0101220022BA
:1001A700A9051201EA1200F81201B7AF011200F80F
:0901B700C280D281D280C28022F4
:0701FC00C280D281D28022F3
:10016D00E4FFD281FED28030810D7480A806088014
:0D017D0002C313D8FC4207C2800EBE08E882
:01018A002252
:10009C00E4FD7FD01200B27B597D017FD01200B2FB
:0600AC007B237D027FD0E2
:1000B200AE07AA031201A7AF021200F81201B7128B
:0900C20001F37F0A7E0002012B0C
:02018B00AA07C1
:10018D001201A71201EAEA4401FF1200F81201B7A9
:09019D0012016D1201FC1201F3C4
:0101A6002236
:0A01E0008FA0C284120123C2852201
:1000CB007FD012018B8F08E50875F01012014B24BD
:1000DB0030FF1200EEE50875F01012014BAFF0EF98
:0300EB002430FFBF
:0A00EE008FA0D284120123C28522E4
:1001C0007F381201E07F801201E07F011201E07FA1
:0401D0000C0201E03C
:100003001201C07F801201E07B8012009C7B047D83
:10001300037FD01200B27B207D047FD01200B27B1D
:10002300017D057FD01200B27B107D067FD01200C8
:10003300B27B107D077FD01200B2900000AD82AF7B
:1000430082EF2461FB7FA01200B2AD827FA0120178
:100053008B8F081200EEA3E5826410458370DE7B6C
:10006300FF12009CE4FBFD7FD01200B27FC012019F
:10007300E07D021200CB7F2D1200EE7D011200CB3A
:100083007F2D1200EEE4FD7FD012018B8F08E5086F
:09009300547FFF1200D402006F3B
:10014B00C2D530F707B2D563F0FF05F030E70CB23C
:10015B00D5F4048463F0FF05F080018430D502F4FC
:02016B0004226C
:00000001FF
