:1007A50054616B652050696C6C0053455420544965
:1007B5004D450020202054696D65205361766564A0
:1007C500202020005345542054494D45202D2048D4
:1007D5006F757220005345542054494D452D4D6980
:1007E5006E757465005345542054494D45202D20A0
:1007F50044617920200053554E004D4F4E0054550D
:100805004500574544005448550046524900534158
:10081500540045525200202041444420414C41524D
:100825004D5320202020002020414C41524D204195
:100835004444454420202000486F75720030303A0A
:10084500303020202020202020004D696E200030EF
:10085500302020004461792020200045766572799A
:100865006461792020202000457665727920322048
:100875004461797300457665727920332044617946
:10088500730045766572792034204461797300459B
:1008950076657279203520446179730045766572F5
:1008A5007920362044617973004576657279203761
:1008B50020446179730045525220202020202020B9
:1008C500202000426F782031205475726E732020ED
:1008D5000030302000426F782032205475726E73DC
:1008E5002020002052454D4F564520414C41524D48
:1008F50053202000204E6F20416C61726D73205390
:10090500455420200020416C61726D2052656D6F49
:100915007665642020002050696C6C2044697370F2
:10092500656E73657220004576657279646179201C
:100935002000457665727932646179730045766584
:1009450072793364617973004576657279346461CF
:1009550079730045766572793564617973004576FA
:1009650065727936646179730045766572793764A5
:10097500617973003F3F3F002042312D0020423214
:020985002D0043
:1015C600021D0000021F00000210000002080000B9
:1015D600020A000002120000020C000002280000AD
:0415E60002210000DE
:09154D007F3012172E7F057E008D
:10155600EF1FAA0670011E4A6015E4FCFDC3ED9458
:0F156600E8EC6480948350E80DBD00010C80EE2A
:011575002253
:10165400E4F51DF51EAF1EE4FD1216B2051EE51ECF
:101664007002051DC3940AE51D6480948040E6223F
:100E7500E4FF1216327508008F09751D00751E01F5
:100E8500D3E51E9509E5086480F8E51D6480985052
:100E950060AF1EAE1D120DF2752100851722752853
:100EA50000851A29750C0085260DE518652470370F
:100EB500E51965257031AC28AD29AE0CAF0D120BC7
:100EC5008CED4C7022E5224521701CE51E75F0065F
:100ED500A424FBFF7D011216B2AF1B7E00AD1C7C66
:100EE50000120CB81210E2051EE51E7093051D8058
:020EF5008F224A
:1010E200121759E4FD7F0112170B7BFF7A0779A5CE
:1010F2001214F1208203308314D291D2922082FD05
:101102002083FA121759E4FD7F0102170B120F76A2
:10111200120BC2E5182401FFE433FEC3E5249FEE5F
:101122006480F87480985013D291D2927F017E002D
:10113200121556C291C2927F018011D291D2927F32
:10114200027E00121556C291C2927F027E001215D3
:031152005680A024
:100CB8008E2A8F2B8D828C83E4F51DF51EC3E51ECD
:100CC800952BE52A6480F8E51D648098503AE4F590
:100CD8001FF52075B00112155275B0041215527522
:100CE800B00212155275B0081215520520E5207091
:100CF80002051FC39404E51F6480948040D5051E37
:100D0800E51E70B9051D80B5E4F5B0F51DF51EC3E7
:100D1800E51E9582E5836480F8E51D648098503A65
:100D2800E4F51FF52075B01012155275B040121574
:100D38005275B02012155275B0801215520520E573
:100D4800207002051FC39404E51F6480948040D579
:0E0D5800051EE51E70B9051D80B5E4F5B0223C
:10000300E4F52AF52BE513451270030207A4120F3A
:1000130076E513640145126003020299121759E44D
:10002300FD7F0112170B7BFF7A0779AF1214F112D0
:100033000BC2E4F50AF50BF52AF52BE52B452A60EF
:10004300260513E51370020512E4F52AF52BFD7F4F
:100053000212170B7BFF7A0779B81214F17F287EFF
:10006300001215560202993082132082FD0513E512
:100073001370020512E4F52AF52B0202993083BBB3
:100083002083FDE50B450A6003020119FD7F011280
:10009300170B7BFF7A0779C91214F1E4F510F511F8
:1000A300F52AF52B3082212082FD050BE50B70022A
:1000B300050AE52B452A605E851125120FF3120F01
:1000C30076E4F52AF52B804E3083D9752A00752BFB
:1000D300012083FD0511E51170020510C39418E595
:1000E30010648094804005E4F510F511121707AEF3
:1000F30010AF117C007D0A120B8CEF2430FF121617
:1001030021AE10AF117C007D0A120B8CED2430FF61
:100113001216210200A7E50B6401450A60030201E0
:10012300B2FD7F0112170B7BFF7A0779DA1214F104
:10013300E4F510F511F52AF52B3082212082FD0517
:100143000BE50B7002050AE52B452A606285112435
:10015300120FF3120F76E4F52AF52B80523083D970
:10016300752A00752B012083FD0511E51170020529
:1001730010C3943CE510648094804005E4F510F5C9
:10018300117D037F0212170BAE10AF117C007D0AA5
:10019300120B8CEF2430FF121621AE10AF117C002E
:1001A3007D0A120B8CED2430FF12162102013CE56F
:1001B3000B6402450A600302003EFD7F0112170B28
:1001C3007BFF7A0779EA1214F1751000751101E4C7
:1001D300F52AF52B3082202082FD050BE50B7002FA
:1001E300050AE52B452A700302003E851127120FED
:1001F300F3120F7602003E3083DA2083FD752A0066
:10020300752B010511E51170020510C39407E51064
:100213006480948040067510007511017D097F028A
:1002230012170BE5107063E51114B40700505B90CF
:10023300024075F003A4C58325F0C58373020255FC
:1002430002025D02026502026D02027502027D0274
:1002530002857BFF7A0779FB80367BFF7A0779FF7C
:10026300802E7BFF7A08790380267BFF7A08790743
:10027300801E7BFF7A08790B80167BFF7A08790F43
:10028300800E7BFF7A08791380067BFF7A08791743
:100293001214F10201D7E51364024512600302064A
:1002A300D1121759E4FD7F0112170B7BFF7A0879EE
:1002B3001B1214F1120BC2E4F510F511F52AF52BFC
:1002C3003082422082FD0513E51370020512E52BEF
:1002D300452A70030206D1E4F52AF52B0509E50941
:1002E30070020508E4F517FB7A00791712151C1242
:1002F30017077BFF7A08792C1214F17F287E0012EE
:1003030015560206D13083B82083FD752A00752B5C
:1003130001E4F510F51130820E2082FD051EE51E65
:100323007002051D0206D13083962083FDE4F50A91
:10033300F50BE50B450A60030203DA7D0C7F02121D
:10034300170B7BFF7A08793D1214F11217077BFF15
:100353007A0879421214F1E4F510F5113082312054
:1003630082FD050BE50B7002050AAE10AF117C0090
:100373007D0A120B8CEFC4F8540FC868FFAB07AEAD
:1003830010AF117C007D0A120B8CEB2DF519804701
:100393003083C92083FD0511E51170020510C39454
:1003A30018E510648094804005E4F510F5111217E8
:1003B30007AE10AF117C007D0A120B8CEF2430FFC7
:1003C300121621AE10AF117C007D0A120B8CED24A6
:1003D30030FF1216218085E50B6401450A60030294
:1003E30004897D0C7F0212170B7BFF7A08794F1269
:1003F30014F17D037F0212170B7BFF7A08795412E5
:1004030014F1E4F510F5113082312082FD050BE57E
:100413000B7002050AAE10AF117C007D0A120B8C23
:10042300EFC4F8540FC868FFAB07AE10AF117C00E0
:100433007D0A120B8CEB2DF518804B3083C920837A
:10044300FD0511E51170020510C3943CE5106480AD
:1004530094804005E4F510F5117D037F0212170B1C
:10046300AE10AF117C007D0A120B8CEF2430FF120B
:100473001621AE10AF117C007D0A120B8CED2430D7
:10048300FF1216218081E50B6402450A6003020511
:10049300807D0C7F0212170B7BFF7A0879591214A7
:1004A300F11217077BFF7A0879601214F1751000B7
:1004B3007511013082322082FD050BE50B700205B8
:1004C3000AAE10AF117C007D0A120B8CEFC4F854F6
:1004D3000FC868FFAB07AE10AF117C007D0A120B8B
:1004E3008CEB2DF51A0205803083C82083FD05119E
:1004F300E51170020510C39407E5106480948040F1
:1005030006751000751101121707E5107063E511E8
:1005130014B40700505B90052775F003A4C5832529
:10052300F0C5837302053C02054402054C020554E1
:1005330002055C02056402056C7BFF7A0879608022
:10054300367BFF7A08796D802E7BFF7A08797A8073
:10055300267BFF7A087987801E7BFF7A087994804F
:10056300167BFF7A0879A1800E7BFF7A0879AE802B
:10057300067BFF7A0879BB1214F10204B6E50B641B
:1005830003450A6003020628FD7F0212170B7BFF57
:100593007A0879C81214F17D0D7F0212170B121419
:1005A300EBE4F510F5113082312082FD050BE50BEC
:1005B3007002050AAE10AF117C007D0A120B8CEF9E
:1005C300C4F8540FC868FFAB07AE10AF117C007DB1
:1005D3000A120B8CEB2DF51B804B3083C92083FD56
:1005E3000511E51170020510C3940BE510648094A6
:1005F300804005E4F510F5117D0D7F0212170BAE57
:1006030010AF117C007D0A120B8CEF2430FF121601
:1006130021AE10AF117C007D0A120B8CED2430FF4C
:100623001216218081E50B6404450A60030202C3AC
:10063300FD7F0212170B7BFF7A0879DA1214F17D22
:100643000D7F0212170B1214EBE4F510F511308233
:10065300322082FD050BE50B7002050AAE10AF11C7
:100663007C007D0A120B8CEFC4F8540FC868FFABF3
:1006730007AE10AF117C007D0A120B8CEB2DF51C1D
:100683000202C33083C82083FD0511E51170020502
:1006930010C3940BE510648094804005E4F510F5D5
:1006A300117D0D7F0212170BAE10AF117C007D0A76
:1006B300120B8CEF2430FF121621AE10AF117C0009
:1006C3007D0A120B8CED2430FF1216218080E51376
:1006D30064034512600302079C121759E4FD7F016E
:1006E30012170B7BFF7A0879E81214F1E4FF121654
:1006F300327508008F09E4F510F51130820E20825F
:10070300FD0513E5137002051202079C3083EC20EC
:1007130083FD0511E51170020510E5094508701800
:10072300FD7F0212170B7BFF7A0879F91214F17F10
:10073300287E001215568061751D00751E01D3E5D4
:100743001E9509E5086480F8E51D64809850ACAFF8
:100753001EAE1D120DF27B007A0079171209873045
:10076300820530822A80FB3083F52083FDAF1EAEE5
:100773001D121227E5091509700215081217077BC8
:10078300FF7A09790A1214F17F287E0012155605A3
:100793001EE51E70A9051D80A5E4F512F5131217B9
:0107A30059FC
:0107A4002232
:10140300E50F65266039E4FF1216327508008F096F
:10141300751D00751E01D3E51E9509E5086480F866
:10142300E51D6480985018E51E75F006A424FBFFA3
:10143300E4FD1216B2051EE51E70DB051D80D7857F
:03144300260F224F
:1011C40012175E1215767F647E0012155612175997
:1011D400E4FD7F0112170B7BFF7A09791B1214F1CE
:1011E400E4F512F513F508F509F50FE4FD7F011296
:1011F400170B7BFF7A09791B1214F1120F76120B6D
:10120400C2121403120E753082E12082FD0513E52B
:101214001370020512120003E4F512F513F50AF532
:031224000B80C874
:10128800EF30E004D2A08002C2A0EF30E104D2A186
:101298008002C2A1EF30E204D2A28002C2A2EF30E3
:1012A800E304D2A38002C2A3EF30E404D2A48002F4
:1012B800C2A4EF30E504D2A58002C2A5EF30E6044F
:1012C800D2A68002C2A6EF30E703D2A722C2A72285
:0D172E00C284121288D285121552C2852283
:051759007F0102172EC4
:04170700E4FD7F027C
:10170B00A907B90105ED24808006B90207ED24C0B5
:05171B00FF12172E2251
:10157600E4FF121288C28412155212154D12154D2F
:101586007F3012172E7F3812172E7F0C12172E7FE0
:091596000112172E7F0602172E28
:10160F00AB38AA39A93A120AD675F00A84E5F02444
:02161F0030FF9A
:10162100D284121288D2857F017E00121556C2859E
:011631002296
:0614EB007BFF7A0879D6B0
:0614F1008B2F8A308931C7
:1014F700E4F532F533AB2FAA30A931853382853233
:1015070083120AD6FF600D1216210533E53370E505
:04151700053280E138
:01151B0022AD
:060BC2007B007A0079239C
:100BC8008B2C8A2D892E121707AB2CAA2DA92E90B3
:100BD8000002120AD675F00A842430FF121621ABDF
:100BE8002CAA2DA92E9000021216157F3A12162152
:100BF800AB2CAA2DA92E900001120AD675F00A84F2
:100C08002430FF121621AB2CAA2DA92E9000011218
:100C180016157F3A121621AB2CAA2DA92E120ABD41
:100C280075F00A842430FF121621AB2CAA2DA92EA8
:100C3800120ABD1216187F20121621AB2CAA2DA954
:100C48002E900004120AD6FF2430F50EEF14B407D4
:100C580000505C900C6975F003A4C58325F0C5832A
:100C680073020C7E020C86020C8E020C96020C9EFD
:100C7800020CA6020CAE7BFF7A0779FB802E7BFF65
:100C88007A0779FF80267BFF7A087903801E7BFF2D
:100C98007A08790780167BFF7A08790B800E7BFF2C
:100CA8007A08790F80067BFF7A0879131214F122EB
:10106C008B388A39893A7D087F0212170BAB38AA64
:10107C0039A93A900001120AD675F00A842430FF7F
:10108C0012162190000112160F7F2F121621AB3869
:10109C00AA39A93A900002120AD675F00A842430B3
:1010AC00FF12162190000212160F7F2F121621AB81
:1010BC0038AA39A93A900003120AD675F00A84248A
:1010CC0030FF121621AB38AA39A93A900003121638
:0610DC00157F2002162121
:100987008B2C8A2D892EE4FD7F0112170BAB2CAA25
:100997002DA92E900002120AD675F00A842430FF82
:1009A700121621AB2CAA2DA92E9000021216157F24
:1009B7003A121621AB2CAA2DA92E900001120AD6A5
:1009C70075F00A842430FF121621AB2CAA2DA92E0C
:1009D7009000011216157F20121621AB2CAA2DA903
:1009E7002E900003120AD614B40700505B900A0237
:1009F70075F003A4C58325F0C58373020A17020A9D
:100A07001F020A27020A2F020A37020A3F020A4771
:100A17007BFF7A09792C80367BFF7A097937802E1C
:100A27007BFF7A09794280267BFF7A09794D801E00
:100A37007BFF7A09795880167BFF7A097963800EE4
:100A47007BFF7A09796E80067BFF7A097979121420
:100A5700F11217077BFF7A09797D1214F1AB2CAAE3
:100A67002DA92E900004120AD675F00A842430FFAF
:100A7700121621AB2CAA2DA92E9000041216157B55
:100A8700FF7A0979821214F1AB2CAA2DA92E9000B6
:100A970005120AD675F00A842430FF121621AB2CF2
:100AA700AA2DA92E900005120AD675F00A84E5F042
:060AB7002430FF021621AD
:1014B800121446121483A9071216ECC2817FF47E17
:0A14C800011214D2D2817FF47E01DC
:1014D2007C007D0F120B37E4FDFCC3ED9FEC9E50A8
:0814E200070DBD00010C80F2B2
:0114EA0022DF
:05175E00D281D28022BF
:0E172000D2801214CCC2817FF47E010214D25A
:03159F00121446DD
:1015A200C2807FFA7E001214D2D2817FFA7E0012AC
:1015B20014D2D2807FFA7E001214D2C2817FFA7EC8
:0415C200000214D23D
:1015EB00C2807FFA7E001214D2C2817FFA7E001273
:1015FB0014D2D2807FFA7E001214D2D2817FFA7E6F
:04160B00000214D2F3
:1016D100C2807FFA7E001214D2C2817FFA7E00128C
:0B16E10014D2D2807FF47E010214D2EC
:1016EC00C2807FFA7E001214D2D2817FFA7E001261
:0B16FC0014D2D2807FF47E010214D2D1
:02144600AB07F2
:10144800E4FAC2807FFA7E001214D2EBA802088068
:1014580002C333D8FC30E704D2818002C2817FFA0C
:101468007E001214D2D2801214CE0ABA08D4C280D6
:0A1478001214CCD2801214CEA2810F
:011482002247
:10148300E4FBFAC2801214CCD2807FFA7E001214DD
:10149300D2A281E433F9C374079AFFE9A80708804D
:1014A30002C333D8FC42037FFA7E001214D20ABA75
:0414B30008D1AF03AA
:0114B7002212
:101674008F3BA90580077FD012144650051217200E
:0F16840080F4AF3B121446AF011214460215EB6F
:021693008F3C8A
:10169500E4F980077FD0121446500512172080F414
:0C16A500AF3C12159F7FD11214B8AF01AA
:0116B1002216
:081326008F318B328A338934C8
:10132E0080077FD0121446500512172080F4AF317B
:10133E00121446E4F536F537C3E5379535E53694A0
:10134E0000501DAB32AA33A93485378285368312FD
:10135E000AD6FF1214460537E53770DC053680D8FD
:03136E000215EB7A
:081155008F2C8B2D8A2E892FAF
:10115D0080077FD0121446500512172080F4AF2C53
:10116D0012159F7FD1121446121483AB2DAA2EA9EE
:10117D002FEF120B03753200753301C3E533953133
:10118D00E532953050201216D1121483AB2DAA2EB4
:10119D00A92F853382853283EF120B150533E53385
:1011AD0070D9053280D51216ECC2811214CED281BF
:0711BD007FF47E010214D251
:0A173B00E52330E703D38001C32249
:0A174500432380AD23E4FF02167475
:0A174F0053237FAD23E4FF0216745C
:0C0FF30085242F852330AB25AD26AF27C9
:100FFF00E53075F00A84C454F0FEE53075F00A84CC
:10100F00E5F04EF523E52F75F00A84C454F0FEE5A4
:10101F002F75F00A84E5F04EF524EB75F00A84C4C1
:10102F0054F0FEEB75F00A84E5F04EF525EF75F000
:10103F000A84C454F0FEEF75F00A84E5F04EF526ED
:10104F00ED14600804700843254080034325607B3E
:0D105F00007A007923753504E4FF021326A2
:100F76007B007A007923753000753104E4FF121185
:100F86005585230EE50E547FC4540F75F00AA4FF51
:100F9600E50E540F2FF52385240EE50EC4540F7568
:100FA600F00AA4FFE50E540F2FF524852627E52524
:100FB60030E62230E5057526018003E4F526852511
:100FC6000EE50E541FC4540F75F00AA4FFE50E5427
:100FD6000F2FF5252285250EE50EC4540F75F00A50
:0D0FE600A4FFE50E540F2FF52575260222FD
:1013BC00EF75F00A84C454F0FEEF75F00A84E5F082
:1013CC004EF514ED75F00A84C454F0FFED75F00A77
:1013DC0084E5F04FF515EB75F00A84C454F0FFEB7F
:1013EC0075F00A84E5F04FF5167B007A00791475D8
:0713FC0035037F04021326F4
:1012D8007B007A0079147530007531037F04121190
:1012E8005585140EE50EC4540F75F00AA4FFE50EDB
:1012F800540F2FF51485150EE50EC4540F75F00A1A
:10130800A4FFE50E540F2FF51585160EE50EC454EF
:0E1318000F75F00AA4FFE50E540F2FF51622F4
:1016B2008F2FA90580077FA012144650051217200C
:0F16C20080F4AF2F121446AF011214460215EB3D
:021632008F2FF8
:10163400E4F980077FA0121446500512172080F4A5
:0F164400AF2F1214461215A27FA11214B8AF01D6
:011653002274
:081371008F2F8B308A31893285
:1013790080077FA0121446500512172080F4AF2F62
:10138900121446E4F534F535C3E5359533E534945F
:1013990000501DAB30AA31A93285358285348312BC
:1013A9000AD6FF1214460535E53570DC053480D8B8
:0313B9000215EB2F
:0D0EF700FF7B007A00791775320075330615
:080F04008F2E8B2F8A308931FA
:100F0C0080077FA0121446500512172080F4AF2ED4
:100F1C001214461215A27FA1121446121483AB2F81
:100F2C00AA30A931EF120B03753400753501C3E5F6
:100F3C00359533E534953250201216D1121483AB0B
:100F4C002FAA30A931853582853483EF120B150514
:100F5C0035E53570D9053480D51216ECC2811214E2
:0A0F6C00CED2817FF47E010214D280
:100DF200EF75F006A424FB120EF785170EE50EC45C
:100E0200540F75F00AA4FFE50E540F2FF51785183D
:100E12000EE50EC4540F75F00AA4FFE50E540F2F11
:100E2200F51885190EE50EC4540F75F00AA4FFE5F6
:100E32000E540F2FF519851A0EE50EC4540F75F0D6
:100E42000AA4FFE50E540F2FF51A851B0EE50EC4FA
:100E5200540F75F00AA4FFE50E540F2FF51B851CE5
:100E62000EE50EC4540F75F00AA4FFE50E540F2FC1
:030E7200F51C224A
:10151C008B2C8A2D892EE4FF1216327508008F0948
:10152C00EF75F006A404FFAB2CAA2DA92E7533067B
:10153C001213710509E50970020508FDE4FF021696
:01154C00B2EC
:101227008E2C8F2DE4FF1216327508008F09852C3E
:101237001D852D1EC3E51E9509E5086480F8E51D8B
:10124700648098502DE52D251E75F006A404120E16
:10125700F7E52D251E75F006A424FBFF7B007A0019
:101267007917753306121371051EE51E70C6051D25
:1012770080C2E509150970021508AD09E4FF0216D9
:01128700B2B4
:03000000020D6688
:0C0D6600787FE4F6D8FD75813C020DADED
:100ABD00BB010689828A83E0225002E722BBFE0237
:090ACD00E32289828A83E493226A
:100AD600BB010CE58229F582E5833AF583E02250D5
:100AE60006E92582F8E622BBFE06E92582F8E2221F
:0D0AF600E58229F582E5833AF583E4932239
:100B0300BB010689828A83F0225002F722BBFE01D1
:020B1300F322CB
:100B1500F8BB010DE58229F582E5833AF583E8F016
:100B2500225006E92582C8F622BBFE05E92582C8C2
:020B3500F222AA
:100B3700BC000BBE0029EF8DF084FFADF022E4CCA2
:100B4700F875F008EF2FFFEE33FEEC33FCEE9DEC6B
:100B5700984005FCEE9DFE0FD5F0E9E4CEFD22EDB1
:100B6700F8F5F0EE8420D21CFEADF075F008EF2FFB
:100B7700FFED33FD4007985006D5F0F222C398FDEC
:050B87000FD5F0EA2289
:100B8C00C2D5EC30E709B2D5E4C39DFDE49CFCEE84
:100B9C0030E715B2D5E4C39FFFE49EFE120B37C3BA
:100BAC00E49DFDE49CFC8003120B3730D507C3E4B5
:060BBC009FFFE49EFE22F3
:100D72000211C4E493A3F8E493A34003F68001F2C2
:100D820008DFF48029E493A3F85407240CC8C33382
:100D9200C4540F4420C8834004F456800146F6DF51
:100DA200E4800B01020408102040809015C6E47E06
:100DB200019360BCA3FF543F30E509541FFEE49346
:100DC200A360010ECF54C025E060A840B8E493A30D
:100DD200FAE493A3F8E493A3C8C582C8CAC583CA38
:100DE200F0A3C8C582C8CAC583CADFE9DEE780BEF0
:0115EA000000
:00000001FF
